:020000040800F2
:10000000B0080020010100087F2E0008AD2C000878
:100010007D2E0008F10D00081135000800000000D9
:10002000000000000000000000000000893000080F
:100030008914000800000000812E0008A531000886
:100040001B0100081B0100081B0100081B01000820
:100050001B0100081B0100081B0100081B01000810
:100060001B0100081B0100081B0100081B01000800
:100070001B0100081B0100081B0100081B010008F0
:100080001B0100081B0100081B0100081B010008E0
:100090001B0100081B0100081B0100081B010008D0
:1000A0001B0100081B0100081B0100081B010008C0
:1000B0001B0100081B0100081B0100081B010008B0
:1000C0001B0100081B0100081B0100081B010008A0
:1000D0001B01000865340008713400081B0100088A
:1000E0001B0100081B0100081B010008DFF80CD0F1
:1000F00000F0FEFB00480047D13F0008B008002098
:100100000648804706480047FEE7FEE7FEE7FEE7B1
:10011000FEE7FEE7FEE7FEE7FEE7FEE70732000840
:10012000ED000008202A04DB203A21FA02F0002129
:10013000704721FA02F3D040C2F1200291400843F7
:100140001946704740EA01039B0703D009E008C93C
:10015000121F08C0042AFAD203E011F8013B00F88C
:10016000013B521EF9D27047D2B201E000F8012BD8
:10017000491EFBD270470022F6E710B513460A4627
:1001800004461946FFF7F0FF204610BD30B505467E
:100190002A460B4612F8010B13F8014B08B1A04296
:1001A000F8D01CB1002802D06D1CF1E7284630BD04
:1001B000421C10F8011B0029FBD1801A704710B5B2
:1001C000002200E0521C835C8C5CA34201D1002B16
:1001D000F8D1D8B2E1B2401A10BDF0B480EA010201
:1001E000D40F4200B2EB410F02D20246084611463C
:1001F0004A0042D0C30DDDB2C1F3C752AD1A202D63
:1002000035DAC1F3160141F4000204B15242C5F1DE
:10021000200602FA06F12A411044B3EBD05F23D046
:10022000C4B1012DA0EBC35009DCF0BC4FF000427B
:1002300002EAC352DBB200F5000000F0F7B940005B
:1002400000F1807000EBC350A0F1807040EAD170E3
:10025000490009E0490841EAC071A0EBC35000F52C
:100260000000400800EBC350F0BC00F0D6B961427A
:10027000012202EB4101001BF6E7F0BC704781F060
:100280000041AAE780F00040A7E780EA010210B52C
:1002900002F00043400022D04A001FD0010E01EBC3
:1002A0001261C0F35600C2F3560240F4000042F45B
:1002B0000002A0FB022000047F39140400D0401C7F
:1002C00050EA124001D44000491EC2B20C0604EBB1
:1002D000D010401C4008802A02D003E0002010BD4E
:1002E00020F00100002900DA0020184310BD2DE99C
:1002F000FE4F81EA030404F0004421F00041009421
:100300004FF0000B23F0004350EA01045ED052EAA4
:1003100003045BD0C3F30A54C1F30A552C44A4F27E
:10032000F3340194A0FB0254C1F3130141F4801192
:10033000C3F3130343F4801301FB024400FB034E99
:10034000840A970A44EA815447EA8357A4FB076862
:1003500002958D0A05FB07854FEA932C04FB0C548C
:100360002705029D4FEA065847EA1637B5EB080500
:100370006EEB070C870E920E47EA811742EA831252
:10038000A7FB0201B6EB0B0164EB00042B0D43EA63
:100390000C335E1844EB1C50DA465146E7FB020171
:1003A000C5F313044FEA0B3343EA14534FEA043204
:1003B000019C43EA0603A4F10C040294009CCDE9DD
:1003C00000B400F070F903B0BDE8F08F00200146E2
:1003D000F9E72DE9F04D81EA030404F0004B21F028
:1003E000004514464FF0000A23F0004150EA050290
:1003F00020D054EA01021DD0C5F30A570246C5F3C6
:100400001303C1F31300C1F30A5640F4801543F4FB
:100410008013A7EB0608101BD64608F2FD3873EBD5
:10042000050002D308F1010801E092185B41B8F120
:10043000000F03DA00200146BDE8F08D00204FF4E4
:100440008011064684460EE0171B73EB050705D3A3
:10045000121B63EB050306434CEA010C49084FEA03
:10046000300092185B4150EA0107EDD152EA0300D7
:1004700012D082EA040083EA0501084305D0101B6C
:10048000AB4106D20122002306E000224FF00043D8
:1004900002E06FF0010253101AEB06004CEB08511A
:1004A00010EB0A0041EB0B01BDE8F04D00F0ECB899
:1004B00096230022114600F0B9B80EB540F2334140
:1004C00002910021CDE900110A460B4600F0EBF83D
:1004D00003B000BD20F00040C10DC0F3160040F491
:1004E00000007F2901DA00207047962903DCC1F162
:1004F0009601C8407047963988407047C1F30A5248
:1005000010B5C1F3130140F2FF3341F480119A4258
:1005100001DA002010BD40F233439A42A2F2334286
:1005200003DC5242FFF7FEFD10BD904010BD00F00D
:10053000004230F000400AD0C10D01F56071C0F3F7
:10054000160042EA0151C2084007114370470020DB
:100550000146704701F0004330B421F0004150EAF9
:10056000010206D00A0DA2F56072C1F31301002A40
:1005700002DC30BC00207047440F44EAC104C100D3
:10058000E01830BC00EBC25000F047B830B50B4665
:10059000014600202022012409E021FA02F59D42B3
:1005A00005D303FA02F5491B04FA02F52844151E87
:1005B000A2F10102F1DC30BD2DE9F05F054600201B
:1005C00092469B4688460646814640241BE02846C4
:1005D000414647462246FFF7A5FD53465A46C01AF4
:1005E000914110D311461846224600F093F92D1A76
:1005F00067EB01084F4622460120002100F08AF9EE
:1006000017EB00094E41201EA4F10104DFDC48462F
:1006100031462A464346BDE8F09F0029A8BF7047EF
:10062000401C490008BF20F00100704710B4B0FA28
:1006300080FC00FA0CF050EA010404BF10BC7047C3
:1006400049B1CCF1200421FA04F411FA0CF118BFDD
:10065000012121430843A3EB0C01CB1D4FEA0061AC
:100660004FEA102042BF002010BC704700EBC3507F
:1006700010440029A4BF10BC7047401C490008BFAB
:1006800020F0010010BC704710B5141E73F1000477
:1006900008DA401C41F1000192185B411A4301D174
:1006A00020F0010010BD2DE9F04D92469B4611B19E
:1006B000B1FA81F202E0B0FA80F22032904600F006
:1006C00029F904460F4640EA0A0041EA0B01534665
:1006D0005A46084313D0114653EA010019D0C8F115
:1006E00040025046FFF71EFD05460E46504659464D
:1006F000424600F00FF9084305D0012004E02046EF
:100700003946BDE8F08D0020054346EAE0762C43EB
:1007100037430A986305E40AA0EB08000022FD0AAB
:1007200044EA47540A3002D500200146E9E70105B2
:1007300010196941DDE9084500196941BDE8F04D2E
:10074000A2E72DE9FE4F804681EA0300C00F0C4668
:10075000009021F0004123F00045B8EB0200A941D0
:1007600005D24046214690461C460B46024623F0E1
:100770000040104347D0270DC7F30A00C3F30A51C6
:100780000290401A019040286BDAC3F3130040F442
:10079000801B0098924620B10023D2EB030A63EB42
:1007A0000B0B01985946C0F14002504600F0B2F8D8
:1007B00006460D4650465946019A00F0BAF810EB2D
:1007C00008006141002487EA115284EAE7731A4362
:1007D00040D0009A62B3019A012A4FEA075215DC11
:1007E000001B61EB02014FF0004202EA0752CDE923
:1007F0000042001C41F5801132462B46FFF753FFA3
:1008000003B0BDE8F08F40462146F9E7001B61EBDD
:100810000201001C41F5801300185B412018A2F56D
:10082000001747EB030140EAD570B6196D4111E09E
:100830006D084FEA360645EAC0754FEA0752001BBD
:1008400061EB0201001C41F5801149084FEA3000BC
:100850000019514132462B4603B0BDE8F04FFFF777
:1008600013BF0098012240000023D0EB020263EB8B
:10087000E073009821464FEAE074B8EB000061EBAA
:100880000401E9E783F000435BE781F0004158E7AA
:10089000C1F30A52C1F3130140F2FF3341F4801156
:1008A0009A4202DA00200146704740F233439A42EE
:1008B000A2F2334202DC5242FFF734BC00F02AB805
:1008C00030B5041E71F1000404DB4FF000444042D7
:1008D00064EB0101141E73F1000405DB1C464FF0AC
:1008E0000043524263EB0403994208BF904230BD7B
:1008F000064C074D06E0E06840F0010394E807006D
:1009000098471034AC42F6D3FFF7F4FBE8430008F5
:1009100008440008202A04DB203A00FA02F10020F3
:1009200070479140C2F1200320FA03F3194390402D
:100930007047202A06DBCB17203A41FA02F043EA3F
:10094000E07306E041FA02F3D040C2F12002914088
:10095000084319467047000070B504460068816876
:10096000C943C90717D1816821F00101816001F0F5
:1009700081FB05460AE000BF01F07CFB401B02281A
:1009800004D920688068C043C00706D0206880680A
:10099000C043C007F0D0002070BDA06A40F0100036
:1009A000A062E06A40F00100E062012070BD00003A
:1009B000F8B500260446009600688168C943C90757
:1009C0002DD0816841F00101816016481649006808
:1009D000B0FBF1F000E0401E00900028FBD101F0D8
:1009E00049FB054616E000BF01F044FB401B02280E
:1009F00010D920688068C043C0070BD0A06A40F0BF
:100A00001000A062E06A40F00100E06284F8246017
:100A10000120F8BD20688068C043C007E4D10020F1
:100A2000F8BD00003000002040420F0070B5054CBA
:100A30000D460122206001F018FB03486560056047
:100A400070BD00004800002070040020024B188098
:100A500059809A8070470000500000202DE9F04135
:100A60000625C82602F0E6FB454C00204D21E0702B
:100A70000420207161715121A1715421E171217211
:100A80006072C220A0720320E072E8202073002070
:100A90003A4F60730922A2730F2078804FF0060846
:100AA00004F10F0037A1FFF74DFB0020207684F8FA
:100AB00019801A20788004F11A00424634A1FFF709
:100AC00041FB002084F820001C2084F82100222013
:100AD000788004F122001C222FA1FFF733FB3E2077
:100AE0007880102121703C463D2060802448417070
:100AF0003B218170401CE06000F0D2FC6188E0681E
:100B000000F02CFED0B901F053FB17E00A2001F0F1
:100B10009DF91B4828A1C838FFF738FB04000DD009
:100B20000A2001F093F926A12046FFF72FFB00B120
:100B3000401C06B30178202905D01CE0761E16F073
:100B4000FF06E3D117E04178022914D1C0780628C6
:100B50000FD2DFE800F0030507090B0D002508E0C0
:100B6000012506E0022504E0032502E0042500E05B
:100B7000052500F095FC2846BDE8F08134000020F2
:100B80002403002036343237313634313600000049
:100B90003338303437350000386B7969543D63653C
:100BA00046686B3146634B795346796669764D42A8
:100BB000433D343D000000004950442C000000003B
:100BC0003A0000002DE9FF41022084020026174D63
:100BD000CDE9004603906946284601F049F94FF4F3
:100BE000806801224146284601F03FFA052003F0C3
:100BF00075F92146284601F02BFA01270C4C0128F3
:100C000011D0267000224146284601F02EFA052018
:100C100003F064F969462846019701F029F9207824
:100C200004B0BDE8F0812770ECE70000000C014043
:100C3000560000202DE9FF414FF400670024CDE964
:100C4000007402201B4E03903D466946304601F079
:100C50000FF901222946304601F007FA0025B8466F
:100C600037156006040E01223946304601F0FDF9C1
:100C7000052003F033F94146304601F0E9F9012837
:100C800000D00020044300223946304601F0EDF93F
:100C9000052003F023F96D1CEDB2082DE1D30120EE
:100CA00001906946304601F0E3F804B02046BDE803
:100CB000F0810000000C01407FB504464FF4406015
:100CC0000090012001900220114D039069462846B2
:100CD00001F0CEF8E914012C17D0002C14D1002219
:100CE000284601F0C2F9012294022146284601F06B
:100CF000BCF9052003F0F2F800222146284601F055
:100D0000B4F9052003F0EAF87FBD0122E8E700000E
:100D1000000C01402DE9F041144F002405464FF42A
:100D200000683E15280601D5012200E00022414658
:100D3000384601F09AF96806050E01223146384618
:100D400001F093F9052003F0C9F800223146384636
:100D500001F08BF9052003F0C1F8641CE4B2082C03
:100D6000E0D3BDE8F041FFF72DBF0000000C0140CB
:100D700070B501220E4DD4022146284601F075F9C6
:100D8000012296023146284601F06FF9052003F052
:100D9000A5F800222146284601F067F9052003F056
:100DA0009DF831462846BDE87040002201F05DB94B
:100DB000000C014070B50D4D4FF400640022214637
:100DC000284601F052F901229102284601F04DF91E
:100DD000052003F083F801222146284601F045F959
:100DE000BDE87040052003F079B80000000C014018
:100DF000FEE700002DE9F04100273C214848FFF7BD
:100E0000BAF9474847A1A030FFF7C0F9040008D05D
:100E10000A2001F01BF845A12046FFF7B7F920B1E1
:100E2000441C2078302805D001E000F039FB38461A
:100E3000BDE8F0816078802803D26088241D46BA1E
:100E400003E0B4F80300641D46BA39A12046FFF759
:100E50009DF900284FF00A004AD000F0F7FF324613
:100E600021462F48FFF76EF92D48A1193C3002F0BA
:100E700083FB64213048FFF77EF92F49A1F5057007
:100E800000F05EF80700D0D002F0D4F92A4C300A06
:100E9000E83C2A4DE070267105206880601D3246CE
:100EA0001F49FFF74FF9688830446880732020722B
:100EB000702060722048FFF77BF90604360C08D0DA
:100EC0006888324620441C49FFF73CF96888304462
:100ED0006880302222706888C11E80290FDA401E87
:100EE00068806270801EA0701348E738E8600AE0EE
:100EF00000F0ACFF204600F077FC074695E7EC6079
:100F000061700120A07000F0CBFA6988E86800F0F9
:100F100025FC08B1012788E701F04AF985E70000C0
:100F2000BC0100204950442C000000003A000000A1
:100F300024637265710000000C040020340000205E
:100F40002DE9F0410E46002452A1FFF71FF90500DC
:100F500072D0022000F07AFF51A12846FFF716F95F
:100F6000524C30B100220121204601F07EF850A100
:100F70000AE056A12846FFF709F948B101221146B7
:100F8000204601F072F854A1304602F0F5FA4CE028
:100F900059A12846FFF7FAF868B10121204601F06F
:100FA0005CF80121204601F053F808B155A200E099
:100FB00055A256A15FE05CA12846FFF7E7F830B1E3
:100FC00000220221204601F050F85AA1DCE760A17E
:100FD0002846FFF7DBF830B101220221204601F05C
:100FE00044F85EA1D0E765A12846FFF7CFF868B1C5
:100FF0000221204601F031F80221204601F028F8B4
:1010000008B140A200E040A25FA134E065A12846FB
:10101000FFF7BCF8664F4FF4005470B10022214630
:10102000384601F022F863A1AEE7012401F022F86E
:101030006849486001F08AFF26E067A12846FFF76B
:10104000A5F830B101222146384601F00EF865A11D
:101050009AE76CA12846FFF799F880B121463846F7
:1010600000F0FBFF2146384600F0F2FF08B125A250
:1010700000E025A266A1304602F07EFAD5E76CA119
:10108000304602F079FA0124022000F0DFFE20460B
:10109000BDE8F0817B22636D64223A7B0000000092
:1010A000224C454430223A3100000000000C01403F
:1010B0007B22524553554C54223A224F4B222C222C
:1010C0004C454430223A224F4E227D00224C45446A
:1010D00030223A30000000007B22524553554C54D8
:1010E000223A224F4B222C224C454430223A224FA6
:1010F0004646227D00000000224C454430223A3210
:10110000000000004F4646004F4E00007B22524533
:1011100053554C54223A224F4B222C224C454430FA
:10112000223A222573227D00224C454431223A3155
:10113000000000007B22524553554C54223A224F66
:101140004B222C224C454431223A224F4E227D0024
:10115000224C454431223A30000000007B225245A7
:1011600053554C54223A224F4B222C224C454431A9
:10117000223A224F4646227D00000000224C454480
:1011800031223A32000000007B22524553554C5424
:10119000223A224F4B222C224C454431223A22251E
:1011A00073227D002252454C4159223A3100000001
:1011B000001001407B22524553554C54223A224F95
:1011C0004B222C2252454C4159223A224F4E227D2D
:1011D00000000000000000202252454C4159223AF4
:1011E000300000007B22524553554C54223A224F86
:1011F0004B222C2252454C4159223A224F4646223C
:101200007D0000002252454C4159223A3200000034
:101210007B22524553554C54223A224F4B222C22CA
:1012200052454C4159223A222573227D000000008C
:101230007B22524553554C54223A224552524F522A
:10124000227D00002DE9F0411C4800270121C0E962
:1012500001711B4D01463C46286800F009FE05F16E
:10126000080602E0708801F0CFFF2868806869688E
:10127000084205D0E0B2411C61F307046428F1D3B1
:10128000E0B2642815D267F30F2402E0708801F001
:10129000BBFF286880686968084206D1C4F307204C
:1012A000411C61F30F246428F0D3C4F307206428A1
:1012B00002D30120BDE8F0810020FBE7700400208C
:1012C0004800002038B52448244C254900682215E0
:1012D000031BA04228D00DDC224BC3181CD0934224
:1012E0000DD18A6942F008028A61896901F008011A
:1012F000009104E093421FD0B3F5006F24D01A4947
:1013000001224A600322CA6000F0B2FD00F09AF8A0
:10131000BDE83840FFF796BF8A6942F004028A614F
:10132000896901F00401E3E78A6942F010028A61E9
:10133000896901F01001DBE78A6942F020028A61C5
:10134000896901F02001D3E78A6942F040028A618D
:10135000896901F04001CBE74800002000100140FE
:101360000010024000F8FEBF7004002070B5164E59
:101370000024A6F1080502E0708801F045FF286806
:1013800080686968084209D0E0B2411C61F3070433
:101390006428F1D302E0708801F036FF2868806885
:1013A0006968084206D1C4F30720411C61F30F2489
:1013B0006428F0D3B08801F027FF28688068696846
:1013C000084000D0012070BD5000002030B5002042
:1013D00004464006050EFFF7C9FF641C2843E4B22B
:1013E000082CF6D330BD00002DE9FC410646002054
:1013F0000D4600900190FFF765FF8DF8000010B1D9
:101400000120BDE8FC8100244FEA0D07FFF7DEFF55
:101410003855641CE4B2052CF8D39DF800109DF8F3
:1014200001009DF803300A189DF8020003441A4495
:101430009DF804309A4202D10C312970307000209E
:10144000DFE7000010B50E490E4C0120486020680F
:1014500000F00EFDA088002281B2206800F005FE99
:10146000192000F0F3FCA088002281B2206800F06F
:10147000FCFD04F108000088BDE8104001F0C4BE86
:101480007004002048000020704742F6DF6303E04C
:101490001946491E89B2FCD2401E80B2F8D270476C
:1014A00010B5C8210348FEF766FE034900200880F6
:1014B00010BD00005C0200203400002070B5624CBA
:1014C00086B0A060B1B308462161E28000215F4E82
:1014D0000091019102910391851B31155C4BB04243
:1014E0003AD00DDC5B4D45192ED08D420DD1996956
:1014F00041F008019961996901F00801049104E043
:101500008D4231D0B5F5006F36D00121CDE90021F3
:1015100002210391694600F0ABFC0022E1882069BA
:1015200000F0A3FDFA2000F091FC0122E18820697F
:1015300000F09BFD4FF4FA74204600F087FCFFF7A3
:10154000AFFF4FF4967522E0996941F0040199616B
:10155000996901F00401D1E7996941F0100199619D
:10156000996901F01001C9E7996941F02001996179
:10157000996901F02001C1E7996941F04001996141
:10158000996901F04001B9E7204600F05FFC2A4666
:1015900031A132A000F0BAF80028F5D0FFF780FFA3
:1015A00002E0204600F052FC22462BA12FA000F0C2
:1015B000ADF80028F5D0FFF773FF02E0204600F0F9
:1015C00045FCC82224A12CA000F0A0F80028F5D0EA
:1015D000FFF766FF02E0204600F038FCC8221EA19B
:1015E00027A000F093F80028F5D0FFF759FF02E09C
:1015F000204600F02BFCC82217A125A000F086F899
:101600000028F5D0FFF74CFF02E0204600F01EFC5A
:10161000C82223A124A000F079F80028F5D0FFF714
:101620003FFF02E0204600F011FCC82225A127A0C0
:1016300000F06CF80028F5D02FA001F08DFF06B067
:10164000BDE87040FFF72CBF3400002000100140BF
:101650000010024000F8FEBF4F4B000041542B52D7
:101660004553544F52450D0A0000000041542B527F
:1016700053540D0A00000000415445300D0A00008B
:1016800041542B43574D4F44453D310D0A00000056
:1016900041542B4357444843503D312C310D0A00EF
:1016A000474F54204950000041542B43574A415062
:1016B0003D2268616F222C2231323334353637387F
:1016C000220D0A00434F4E4E4543540041542B43D4
:1016D000495053544152543D22544350222C2231FC
:1016E00038332E3233302E34302E3339222C3630EC
:1016F00030320D0A00000000455350383236362093
:10170000496E6974204F4B0D0A00000070B51446F5
:101710000D460646FEF74CFD0146304601F0EEFE52
:101720000A20B4FBF0F40A2000F090FB29460A4896
:10173000FEF72CFD18B1322000F088FB03E0641E98
:101740002404240CEFD1C82000F080FB0CB1012050
:1017500070BD002070BD00005C0200202DE9F0414A
:101760000E4607467825002420211548FEF703FD84
:10177000FFF796FE324613A1114801F0FDFEC82284
:1017800014A10F48FFF7C2FF18B13146384601F0E7
:10179000B5FEFFF785FE142000F058FB0EA110489F
:1017A000FEF7F4FC20B101241E2000F04FFB03E003
:1017B0006D1E15F0FF05EED12046BDE8F08100005A
:1017C000EC03002041542B43495053454E443D25E2
:1017D000640D0A003E00000053454E44204F4B006C
:1017E0005C02002072B6FEE710B507A1FEF7CEFC42
:1017F0000446022000F02AFB1CB105492046FFF7F1
:101800009FFB012010BD00002F636D64700000007D
:101810000C040020F8B500250446009590F824003B
:1018200001280BD0012084F824002046FFF794F80B
:101830002046FFF7BDF8060002D050E00220F8BDB8
:10184000A06A20F4885040F00200A062022000F05C
:10185000C1FC25490968B1FBF0F0400000E0401EE2
:1018600000900028FBD12068816841F00801816068
:1018700000F000FC074608E000F0FCFBC01B0A2853
:1018800003D920688068000715D4206880680007A5
:10189000F2D42068816841F00401816000F0EAFB25
:1018A000074612E000F0E6FBC01B0A280DD92068AD
:1018B0008068400709D5A06A20F0020040F01000BF
:1018C000A06284F824500120F8BD20688068400799
:1018D000E8D4A06A20F0020040F00100A06284F881
:1018E00024503046F8BD000030000020F8B5002438
:1018F000009490F824202546012A12D0012280F875
:1019000024204A681F23072A0DD20668776B521ECF
:1019100002EB820293409F430B6893401F4377631F
:1019200019E00220F8BD06680D2A0AD2376BD21FD3
:1019300002EB820293409F430B6893401F4337633F
:1019400009E0F76A0D3A02EB820293409F430B686D
:1019500093401F43F7620A68072306680A2A0AD3DE
:10196000F7680A3A02EB420293409F438B68934028
:101970001F43F76008E0376902EB420293409F4340
:101980008B6893401F4337610A68102A01D0112ADF
:1019900020D1124B02689A4217D193681B0219D4C6
:1019A000936843F4000393600968102912D10C492D
:1019B0000C4A0968B1FBF2F101EB8101490000E03A
:1019C000491E00910029FBD104E0816A41F0200109
:1019D0008162012480F824502046F8BD0024014093
:1019E0003000002040420F000068C06C70470000CB
:1019F0002DE9F0414FF0000704003D467ED0A06A7B
:101A0000002628B9E66284F82460204600F07EF8BB
:101A10002046FEF7A1FFA16A01F01001014304D0A6
:101A2000A06A40F01000A06268E0A16A21F4885129
:101A300041F00201A1626268E169237B0A4347EA3F
:101A400043010A43A1684FF48077B94208D00129C5
:101A500006D0002194F814C0BCF1010F02D00AE0B6
:101A60003946F7E7F3B1A36A43F02003A362E36AC0
:101A700043F00103E3622368D3F804C02CF4694CFB
:101A80004CEA010CC3F804C023689968DFF870C001
:101A900001EA0C0111439960A168B9420BD00129F8
:101AA00009D00CE0DFF85CC0A3690CEB43330B43B7
:101AB00043F40061DFE7218A0D05A5F58015216853
:101AC000CB6A23F470032B43CB62216889680E4BE9
:101AD0001940914208D1E662A16A21F0020141F069
:101AE0000101A162BDE8F081A06A20F0020040F08F
:101AF0001000A062E06A40F00100E0620120F1E71E
:101B0000FDF7E1FF00E0FFFFFE0E1FFF10B50068CC
:101B100014498AB0884223D100200090019002909D
:101B200003901148816941F004018161816901F0EC
:101B300004010891816941F4007181618069022486
:101B400000F4007008900320CDE9044004A9074880
:101B500000F08EF9A00302900094684600F09EFB0E
:101B60000AB010BD002401400010024000080140EE
:101B70002DE9F84300270D460446009700F07AFA55
:101B8000804620688168C90508D5A06A40F0200019
:101B9000A06284F824700120BDE8F8834168C9057B
:101BA00003D4C06A10F4700F2AD0022000F012FB98
:101BB0003B490968B1FBF0F62068036939490B42DB
:101BC0004FEA61014FEAA1121FD1C3684FEA611CBD
:101BD00013EA0C0F19D103690B4225D1C0681042DA
:101BE00022D1142023E0681C0AD02DB100F042FA63
:101BF000A0EB0800A84203D920680068800725D51B
:101C0000206800688007EED52DE003690B4202D101
:101C1000C168114206D0026923490A4206D1C06850
:101C2000084203D1542002E0292000E0FC20464372
:101C3000009816E0681C11D02DB100F01BFAA0EB43
:101C40000800A8420AD90098B04207D2A06A40F022
:101C50000400A06284F8247003209DE70098401CD3
:101C60000090B042E6D321686FF012000860A06ACD
:101C700040F40070A06220688068C0F342400728EA
:101C80000CD1207B50B9A06A20F48070A062A06AB9
:101C9000C00403D4A06A40F00100A06200207BE7EA
:101CA00030000020244992244992240070B5044653
:101CB00090F8240001280DD0012084F8240020464B
:101CC000FEF776FE02004FF0000005D084F82400F5
:101CD000104670BD022070BDA16A40F201239943F5
:101CE00041F48071A1621F4D23681F49AB4218D196
:101CF0000E6816F4702F14D0A66A46F48016A662F9
:101D00000E68760505D5A66A26F4005646F4805678
:101D1000A662A66AF6040AD5E66A26F00606E66218
:101D200006E0A66A26F48016A6625E68E9E7E0622D
:101D300084F824006FF00200186020688368C3F301
:101D40004243072B05D1A84208D1096811F4702F2E
:101D500004D0816841F480118160B9E7816841F461
:101D6000A001F9E7002801400424014010B590F8D3
:101D700021100022022905D00421816380F820204F
:101D8000012010BD01680B6823F00E030B60016891
:101D90000B6823F001030B6090F84030C46B012105
:101DA00001FA03F3636080F8211080F820201046C8
:101DB00010BD000010B590F821100024022903D0B6
:101DC0000421816301243DE001680A6822F00E02CB
:101DD0000A6001680A6822F001020A601A4A016872
:101DE000914201D1012121E0174A1432914201D1DF
:101DF00010211BE0144A2832914201D1891515E0C7
:101E0000114A3C32914201D189140FE00E4A5032FE
:101E1000914202D14FF4803108E00B4A6432914282
:101E200002D14FF4801101E04FF08071064A083A68
:101E30005160012180F82110002180F82010416BB1
:101E400001B18847204610BD0800024070B5044625
:101E500000F010F90546601C02D0044800780444E4
:101E600000F008F9401BA042FAD370BD2400002006
:101E70002DE9F84FDFF8B891002409F1040A0AF1BE
:101E8000040B23460F270BF1040EC9E00125A540E2
:101E90002A40AA427DD1674ED1F804C0ACEB0608B7
:101EA000B44532D014DCBCF1030F3AD009DCBCF1EC
:101EB000000F2AD0BCF1010F1CD0BCF1020F31D1B0
:101EC0001DE0BCF1110F17D0BCF1120F2AD119E09F
:101ED000B8F5881F19D006DCB8F5803F15D0B8F5E5
:101EE000801F1FD111E0B8F5001F0ED0B8F5041FF8
:101EF00018D10AE0CB6815E0CB681B1D12E0CB6857
:101F000008330FE0CB680C330CE08B682BB1012B4E
:101F10004FF0080303D0456104E0042302E00561AB
:101F200000E00023FF2A01D8064601E000F1040684
:101F30004FEA840501D9A5F12005D6F8008007FAFB
:101F400005FC28EA0C0803FA05F548EA0508C6F876
:101F500000804D68ED0062D5374DAE6946F0010650
:101F6000AE61AD6924F0030605F001050095334D1F
:101F700006EB050CDCF80850A607360F07FA06F842
:101F800025EA0805DFF8B880404503D14FF0000886
:101F900017E044E0DFF8AC80404502D14FF0010883
:101FA0000FE0DFF8A480404502D14FF0020808E0BE
:101FB000DFF89880404502D14FF0030801E04FF070
:101FC000040808FA06F848EA0508CCF808804D68C5
:101FD000D9F80060ED034D4601D5164300E0964365
:101FE0002E604D68DAF80060AD03554601D5164302
:101FF00000E096432E604D68DBF80060ED025D4620
:1020000001D5164300E096432E604D68DEF800606F
:10201000AD02754601D5164300E096432E60641C60
:102020000D682A46E5407FF431AFBDE8F88F000027
:1020300000040140000011100010024000000140A7
:1020400000080140000C0140001001400014014054
:102050008068084000D001207047C26821EA02036E
:102060000A4043EA0241016170470AB101617047C9
:102070000904FBE701488068704700002400002045
:102080000248816802781144816070472400002072
:10209000074810B5016841F010010160032000F00D
:1020A00075F8002000F006F800F024F8002010BDBC
:1020B0000020024070B50D4D04464FF47A71287827
:1020C000B1FBF0F00A490968B1FBF0F000F0D8FB71
:1020D00048B9102C07D200222146501E00F036F8D5
:1020E00000206C6070BD012070BD00002400002045
:1020F000300000200C4808B5816941F00101816180
:10210000816901F001010091C16941F08051C16113
:10211000C06900F0805000900448416821F0E061FF
:1021200041F00071416008BD001002400000014014
:10213000002809DB00F01F020121914040098000C6
:1021400000F1E020C0F8001170470000F0B40E4B21
:102150001B680C46C3F30223C3F10705042D00D905
:102160000425191D072901D2002300E0DB1E0126EA
:1021700006FA05F1491E214099409E40761E164000
:102180003143F0BC01F00CBA0CED00E0064900F060
:10219000070208684FF6FF03184040EA0220034A8E
:1021A00010430860704700000CED00E00000FA05E5
:1021B000BFF34F8F05480168054A01F4E061114300
:1021C0000160BFF34F8F00BFFDE700000CED00E0A2
:1021D0000400FA0510B529A401461DCC86B08DE88F
:1021E0001D002AA02A4C006804900020012923D059
:1021F00002293AD010291DD161682268D20119D56F
:10220000C1F38342C9031DF8020009D5616804AA1D
:10221000C1F34041515C1F4AB2FBF1F1484301E078
:102220001D4948436168490204D440005FF003013E
:10223000B0FBF1F006B010BD226AC2F30121012902
:1022400003D1920701D5C803F4E7022905D1626AD8
:10225000920702D549F64040ECE70329EAD121680C
:102260008903E7D54FF22440E4E700F033F96168D1
:10227000C1F38131491C4900DAE70000020304057B
:10228000060708090A0B0C0D0E0F101001020000C2
:102290000010024000127A0000093D002DE9F843C9
:1022A00005460078354CC00754D0E0690026C000D0
:1022B00008D4E06940F08050E061E069012600F058
:1022C000805000902E480168C90512D401688046EC
:1022D00041F480710160FFF7CDFE074605E000BFC5
:1022E000FFF7C8FEC01B642823D8D8F80000C0053B
:1022F000F6D5206A10F4407021D0A98801F440710D
:1023000081421CD0206A1F49012220F440700A60DB
:1023100000220A602062C00711D0FFF7ABFE07461B
:1023200041F2883808E000BFFFF7A4FEC11B414519
:1023300002D90320BDE8F883206A8007F4D5206A1B
:10234000696820F44070084320621EB1E06920F003
:102350008050E0612878800705D56068A96820F47E
:102360004040084360602878C00605D56068E96889
:1023700020F48000084360600020DBE7001002408A
:1023800000700040400442422DE9F0470F4605002E
:1023900061D0434E306800F00700B84209D230687F
:1023A00020F0070038433060306800F00700B84282
:1023B00051D128683B4C810712D5400703D560688E
:1023C00040F4E06060602878000703D5606840F45E
:1023D000605060606068A96820F0F00008436060A9
:1023E0002878C00728D06868012810D02168022802
:1023F00010D0890700292EDA616821F0030101431A
:102400006160FFF737FE804641F288390DE02168B0
:102410008903EFE78901EDE7FFF72CFEA0EB080148
:10242000494502D90320BDE8F0876068696800F07B
:102430000C00B0EB810FEFD1306800F00700B8421C
:102440000BD9306820F0070038433060306800F066
:102450000700B84201D00120E5E72878400705D5FC
:102460006068E96820F4E06008436060287800074D
:1024700006D56068296920F4605040EAC1006060B8
:1024800000F038F86168084AC1F30311515CC84094
:102490000649086006480068FFF70CFE0020C2E706
:1024A0000020024000100240784300083000002065
:1024B000280000200448054900684968044AC1F31F
:1024C0000221515CC84070473000002000100240DB
:1024D000884300080448054900684968044AC1F374
:1024E000C221515CC84070473000002000100240FB
:1024F0008843000812A185B00FC98DE80F0014A011
:10250000144A006804905168134801F00C03042B2E
:1025100010D0082B0ED1C1F38343C9031DF803006B
:102520000AD5516804AAC1F34041515C0A4A50439C
:10253000B0FBF1F005B0704708494843FAE70000E6
:1025400002030405060708090A0B0C0D0E0F1010F4
:10255000010200000010024000127A0000093D0054
:102560002DE9F84F040070D02078C04DC00749D045
:102570006868C0F38100012807D06868C0F3810053
:10258000022809D16868C00306D52868800339D5B8
:1025900060680028E7D035E06068B0F5803F0BD078
:1025A00010B1B0F5A02F11D0286820F48030286039
:1025B000286820F4802002E0286840F480302860F9
:1025C000606890B1FFF756FD06460AE0286840F4BF
:1025D00080202860F0E700BFFFF74CFD801B6428D7
:1025E00073D828688003F7D50CE0FFF743FD064653
:1025F00005E000BFFFF73EFD801B6428F0D8286887
:102600008003F7D420789A4E80074FF001094FF0ED
:10261000000839D5686810F00C0F07D06868C0F35F
:102620008100022809D16868C00306D428688007A1
:1026300014D52069012808D110E02069B0B1C6F88E
:102640000090FFF717FD074605E00AE1FFF712FDCE
:10265000C01B0228C4D828688007F7D5286861699C
:1026600020F0F80040EAC10028600DE0C6F80080C4
:10267000FFF700FD074604E0FFF7FCFCC01B022843
:1026800023D828688007F7D4207800072CD579480C
:10269000A169D9B1C0F80090FFF7ECFC074604E04F
:1026A000FFF7E8FCC01B02280FD8686A8007F7D53F
:1026B00071484FF4FA510068B0FBF1F0009000BF90
:1026C0000098411E0091FAD20EE080E0C0F8008030
:1026D000FFF7D0FC074604E0FFF7CCFCC01B022844
:1026E00075D8686A8007F7D42078400760D5E86914
:1026F0000027C00008D4E86940F08050E861E8692C
:10270000012700F0805000905C480168C90513D48F
:102710000168834641F480710160FFF7ABFC82469B
:1027200006E000BFFFF7A6FCA0EB0A0064284ED825
:10273000DBF80000C005F5D5E06801280AD008B133
:10274000052813D0286A20F001002862286A20F0AA
:10275000040002E0286A40F001002862E06841F2CB
:10276000883B98B1FFF786FC82460BE0286A40F070
:1027700004002862EEE700BFFFF77CFCA0EB0A0133
:1027800059455AD8286A8007F6D50CE0FFF772FC45
:10279000824605E0FFF76EFCA0EB0A0159454CD8D4
:1027A000286A8007F6D41FB1E86920F08050E861FC
:1027B000E06988B36968C1F38101022944D0022825
:1027C000C6F8608004D0FFF755FC044638E034E0DA
:1027D000FFF750FC074604E0FFF74CFCC01B022843
:1027E0002BD828688001F7D4206AB0F5803F05D146
:1027F0006868A16820F4003008436860D4E90801E3
:102800000843696821F4741108436860C6F8609051
:10281000FFF730FC044606E025E000BFFFF72AFC86
:10282000001B022809D828688001F7D51BE000BFEB
:10283000FFF720FC001B022802D90320BDE8F88F17
:1028400028688001F4D40EE00128F7D06868226A75
:1028500000F48031914204D1616A00F47010884222
:1028600001D00120EAE70020E8E700000010024064
:1028700000004242800442423000002000700040CC
:1028800010B5401EB0F1807F01D3012010BD4FF084
:10289000E02460610F21601700F082FE0020A0613B
:1028A00007202061002010BD70477047F8B502680E
:1028B00004461068D168536910F00F0F4FF00005FF
:1028C00054D003F0010601F4907737435FD0C2077C
:1028D00005D0CA0503D5226C42F0010222644207EA
:1028E00005D5DA0703D0226C42F002022264820787
:1028F00005D5DA0703D0226C42F0040222640207F5
:1029000007D501F02002324303D0226C42F00802C6
:102910002264226C002A35D0800604D5880602D5B0
:10292000204600F0B5FC20684069216CC0F380109F
:1029300001F008010143204625D000F091FC2068F9
:10294000416949061BD5416921F040014161A06BF5
:10295000A8B158494163A06BFFF72CFA002811D0A9
:10296000A06B416B01B0BDE8F040084783060ED56F
:102970008B060CD52046BDE8F84000F089BC204607
:10298000FFF793FFF8BDFFF790FF2564F8BD266BB6
:102990002023012E52D1C60650D5CE064ED5106842
:1029A00050680090506940062AD5A16B08684068BD
:1029B0000004000CEAD0A68D8642E7D9E08588693C
:1029C000202818D0D06820F48070D0602068416939
:1029D00021F0010141612068416921F0400141611C
:1029E00084F83E3025632068C16821F01001C16081
:1029F000A06BFFF7BBF9A08DE18D401A81B219E001
:102A0000A08DE18D401A81B2E08D0028BED0002952
:102A1000BCD0D06820F49070D0602068426922F069
:102A20000102426184F83E3025632068C26822F0CA
:102A30001002C2602046FFF737FFF8BD05062BD510
:102A40000D0629D594F83D002128F6D1A068B0F5EF
:102A5000805F01D12069B0B1206A411C21622168E8
:102A600000784860E08C401E0004000CE084E4D153
:102A70002068C16821F08001C1602068C16841F010
:102A80004001C160F8BD206A0088C0F308005060B2
:102A9000206A801C2062E5E74006F3D54806F1D5A0
:102AA000D168204621F04001D16084F83D3000F02B
:102AB000FCF8F8BD5132000870B5040004D094F859
:102AC0003D00002510B106E0012070BD84F83C50A7
:102AD000204600F023F8242084F83D002068C168D7
:102AE00021F40051C160204600F02EFC20680169ED
:102AF00021F4904101612068416921F02A0141617E
:102B00002068C16841F40051C1602564202084F828
:102B10003D0084F83E00002070BD000070B586B016
:102B2000002400940194029403942E4E03682E49CD
:102B3000022003222D4DB34226D18B6943F48043FA
:102B40008B618B6903F4804304938B6943F0040326
:102B50008B618969039201F0040104910102CDE9BE
:102B6000001069462846FFF783F92815CDE90004CF
:102B7000694628460294FFF77BF90022114625207A
:102B8000FFF7E4FA252028E0194EB34227D1CB699C
:102B900043F40033CB61CB6903F4003304938B69B6
:102BA00043F004038B618969039201F004010491ED
:102BB0000421CDE9001069462846FFF759F908209D
:102BC000CDE90004694628460294FFF751F9002236
:102BD00011462620FFF7BAFA2620FFF7A9FA06B019
:102BE00070BD0000003801400010024000080140A4
:102BF00000440040704700002DE9F843044690F877
:102C00003D001F4616460D4620284CD1C5B1BEB129
:102C100094F83C00012846D0012084F83C004FF095
:102C20000008C4F84080212084F83D00FFF722FA14
:102C3000A6848146E684A068B0F5805F03D004E0F6
:102C40000120BDE8F883206928B12E465FF0000519
:102C500084F83C800EE00026FAE78021204600F050
:102C6000CFFBA0B9AEB116F8010B21684860E08C2B
:102C7000401EE084E08C4B464FF000020097002895
:102C8000EBD14FF04001204600F0BAFB30B10320F9
:102C9000D7E735F8020BC0F30800E6E7202084F8F8
:102CA0003D000020CDE70220CBE77047FEE710B5DE
:102CB000FEF75EF84620FEF72DF80120FEF72AF811
:102CC000BDE81040FEF776B870B5C8240025204650
:102CD000FFF7BCF800F0AEFA1D4E1C49C022708808
:102CE0000A54401C80B200220A54401C7080FEF737
:102CF000D7FB71881548FEF731FDD0B9FFF758FAB8
:102D000017E00A20FFF7A2F8104812A1C838FDF713
:102D10003DFA06000DD00A20FFF798F80FA13046C3
:102D2000FDF734FA00B1401C5CB10178D02905D020
:102D300007E0641E14F0FF04E3D102E0407800B91C
:102D40000125FEF7ADFB284670BD000024030020DE
:102D5000340000204950442C000000003A000000DC
:102D600001F09CB82DE9F04385B00024244800947C
:102D7000019402940394816941F010018161816999
:102D800001F010010491816941F0200181618169A4
:102D900001F020010491816941F0040181618169A0
:102DA00001F004010491816941F0080181618069A9
:102DB000DFF8508000F00800049001220321404613
:102DC000FFF753F90122DFF8409057033946484690
:102DD000FFF74BF9032001250226CDE90005CDE9D7
:102DE000024669464046FFF743F800970396CDE94F
:102DF000015469464846FFF73BF805B0BDE8F0834B
:102E000000100240000C0140001001400C4810B5B9
:102E10000A4901604FF4E1314160002181600C22D8
:102E2000C160C0E904128161C161FFF745FE00285D
:102E300003D0BDE81040FEF7D5BC10BD00380140FE
:102E4000340100200C4810B50A4901604FF4E1310B
:102E50004160002181600C22C160C0E904128161DF
:102E6000C161FFF729FE002803D0BDE81040FEF73E
:102E7000B9BC10BD0044004078010020FEE7FEE729
:102E8000704700002DE9F0471E4692460F468146E6
:102E900000F0D0F92B4C380A294DE070277105203D
:102EA00068804FF00308601D3A464946FDF74AF92D
:102EB000688825A1384468804846FDF780F960B9E4
:102EC0006888B21C04F80080401C81B2100A60546B
:102ED000491C88B22254401C688068887B21324695
:102EE0002154401C80B2688020445146FDF72AF9E5
:102EF00068887D21304480B230222154401C80B249
:102F00006880C11E2270802908DA401E68806270C5
:102F1000801EA0700B48401CE86003E0EC6061700C
:102F20000120A070FEF7BCFA6988E868FEF716FC7D
:102F300008B9FFF73DF9BDE8F047FEF7B1BA000068
:102F40003400002024030020246470002DE9F041A7
:102F500088B06420FEF77AFF3C49481EFEF744FA29
:102F600000F0D8FA394CE41EA06001F011F8E060DE
:102F7000A068DFF8DC804FF400553C2801D900221E
:102F800000E0012229464046FFF76FF896213148BC
:102F9000FDF7F1F8304E02213046FFF759F880F086
:102FA000010701213046FFF753F880F0010629465A
:102FB0004046FFF74DF880F00105E068FDF7B7FAED
:102FC00002AA82E8E300A0680090E378A27823498F
:102FD000204800F0D1FA1F483C219630FDF7CBF88D
:102FE0001C481FA321A223A1963000F0C5FA19485E
:102FF000FDF7DEF884B217489630FDF7D9F8154A88
:1030000081B2234602F19600FFF73CFFC820FEF78D
:103010001DFF10483C219630FDF7ADF80D4819A171
:10302000963000F0A9FA0B48FDF7C2F884B20948BF
:103030009630FDF7BDF808B02346BDE8F041054ADB
:1030400081B202F19600FFF71DBF000003000020CF
:103050000010014060000020000C01409043000877
:1030600036343237313634313600000033383034BC
:1030700037350000746F7069632F25732F25732F08
:103080006470000024647000704710B50446FDF7BA
:103090006FFE4620FDF73EFE2046FDF73BFEBDE8F5
:1030A0001040FDF787BE00002DE9F0478146C82794
:1030B0000E464FF000083846FEF7C8FE00F0BAF89A
:1030C000334D344C3246A888401CA880010AE17078
:1030D0002071300A6071A67107206880E01D4946A2
:1030E000FDF730F868880021304480B280222154F6
:1030F000401C80B26880C11E2270802907DA401E01
:1031000068806270801EA070601CE86003E0EC6064
:1031100061700120A070FEF7C3F96988E868FEF7C6
:103120001DFBD0B9FFF744F817E00A20FEF78EFE2A
:10313000184819A1C838FDF729F804000DD00A2055
:10314000FEF784FE16A12046FDF720F800B1401CD2
:10315000C7B10178902905D014E07F1E17F0FF0752
:10316000E3D10FE0417803290CD18278A988B2EB32
:10317000112F07D1C2788A4204D10079032801D2E5
:103180004FF00108FEF78CF94046BDE8F0870000DB
:1031900034000020240300204950442C000000008B
:1031A0003A000000FEF76CBF30B58FB028216846AA
:1031B000FCF7E1FF14210AA8FCF7DDFF0121080458
:1031C000CDE900100024029402250491CDE90750B6
:1031D0004FF4E01009906846FFF7C2F908B172B6E3
:1031E000FEE70F20CDE90A054FF48060CDE90C40E1
:1031F00002210AA80E94FFF7C7F8002801D072B682
:10320000FEE70FB030BD70474FF0E02399698AB2F6
:10321000002102E000BF491C89B28142FAD39869BB
:1032200080B2824201D9101A02E059691144081A89
:1032300080B2704710B5C8210348FCF79CFF0349D2
:103240000020488010BD000024030020340000202E
:1032500010B5406A0021C185C184FFF726FB10BD6F
:103260000168CA6822F49072CA6001684A6922F053
:1032700001024A61016B012904D10168CA6822F088
:103280001002CA60202180F83E10002101637047BF
:1032900008B590F83E10222901D0022008BD8268AE
:1032A0004FF480539A4201D1016921B1816A9A4257
:1032B0001BD04AB10AE00268816A5268C2F3080270
:1032C0000A80816A891C08E0026972B1026852684A
:1032D00002F07F020A70816A491C8162C18D491E19
:1032E0000904090CC18503D019E002685268F1E7AE
:1032F0000168CA6822F02002CA600168CA6822F424
:103300008072CA6001684A6922F001024A61202184
:1033100080F83E10016B012903D0FFF76BFC002001
:1033200008BD002101630168CA6822F01002CA606A
:1033300001680A68D20602D50A6849680091818D41
:10334000FFF7B2FAEBE7000070B5044600680169C8
:10335000E26821F44051114301612169A0680843EA
:10336000616908432168CA6841F20C639A430243C9
:10337000CA6020684169A26921F44071114341612A
:103380001E492068884202D1FFF7A4F801E0FFF748
:1033900091F800EBC00101EB00126068642180002D
:1033A000B2FBF0F3B3FBF1F36FF018067343B2FB1B
:1033B000F0F5B2FBF0F605EB8305322303EB0515C0
:1033C000B5FBF1F5B6FBF1F605F0F00505EB0615DA
:1033D000B2FBF0F6B2FBF0F0B0FBF1F06FF01802C8
:1033E000504306EB800003EB0010B0FBF1F02168C6
:1033F00000F00F002844886070BD000000380140D4
:103400002DE9F041984617460E460446069D1DE0FC
:10341000681C1BD02DB1FEF72DFEA0EB0800A842C2
:1034200014D92068C16821F4D071C1602068416955
:1034300021F001014161202084F83D0084F83E0024
:10344000002084F83C000320BDE8F081206800687B
:1034500036EA000004D00020B842D9D00020F3E7BB
:103460000120F9E70148FFF721BA000034010020EC
:10347000014800F003B800007801002018B51B4A8D
:103480000168914231D10A6893064FF000021DD5C0
:10349000CB6823F02003CB6003686FF02001196034
:1034A00013490B88C52B00D30A8002685368114C5E
:1034B0000A88A354521C0A800168CA6842F020029C
:1034C000CA600168CA6842F01002CA6001680A68EE
:1034D000D2060AD5CA6822F01002CA6000680168E4
:1034E0004068054900900120487018BD0044004024
:1034F000340000205C020020000000208AB2014657
:10350000024864238068FFF777BB00003400002086
:10351000FEE7000010B50120FFF7B7FD1020FFF710
:10352000B4FDB420FEF792FC00F0EAFE08480178F2
:10353000407800EB012080B2FCF7BFFF4FF0333240
:10354000044BFCF746FFFCF7D9FF80B210BD00002A
:10355000570000203333F33F0FB4054B10B503A9D8
:10356000044A029800F0EEF810BC5DF814FB00006D
:10357000793F00085C0000200FB4084B10B504A987
:1035800002AA039800F0DEF8044602A9002000F029
:1035900070FC204610BC5DF814FB0000733E000870
:1035A0000907090E002804DB00F1E02080F8001470
:1035B000704700F00F0000F1E02080F8141D704704
:1035C00002E008C8121F08C1002AFAD170477047EC
:1035D000002001E001C1121F002AFBD1704700004A
:1035E0002DE9FF5FDDE90220010DDDF838B002436F
:1035F00018D044F61050A1F2FF3141430D140F983A
:10360000012820D0A5EB0B00401C5FEA000A4FF018
:103610000004474EDFF81C91A046504616D5CAF16B
:10362000000728E00F98012443A2012808D00021B8
:1036300000980F9BC0E90021C0E90243BDE8FF9F4D
:103640006FEA0B01F4E7CBF10000DEE7074612E07A
:10365000F80707D02246334640464946FCF747FE66
:10366000804689462246334610461946FCF73FFEFF
:1036700004460E467F10002FEAD1DDE90201BAF1BF
:10368000000F42464B4602DAFCF731FE01E0FCF740
:10369000A0FE04460E460022284BFDF711F903D880
:1036A0004FF0FF30014607E00022254B204631460F
:1036B000FDF747F8FDF7ECF8102409E0002C0ADBD1
:1036C0000A220023FCF778FF019B30321A55641E52
:1036D00050EA0102F2D1641C019AC4F111031444AE
:1036E0000F9A012A03D0012208430DD10AE00843B2
:1036F00004D000204FF0110B0F9080E7A3EB0B05D7
:103700006D1E0DE05B4504DD4FF0000205F1010583
:1037100004E003DA4FF00002A5F10105002AECD025
:1037200000980F99C0E90231C0E9004586E7000022
:10373000000024400000F03F300000000000F04393
:103740000000E03F2DE9FF4F95B09B4689460646B5
:1037500000250FE2252877D100242746F84A0121C9
:10376000059400E0044316F8013F203B01FA03F002
:103770001042F7D130782A2811D06FF02F0330781B
:10378000A0F13002092A16D8059A44F0020402EB8F
:10379000820203EB42021044761C0590EFE759F8D1
:1037A000042B0592002A03DA504244F40054059099
:1037B00044F00204761C30782E2816D116F8010F3A
:1037C00044F004042A280DD06FF02F023078A0F1C5
:1037D0003003092B09D807EB870302EB4303C71813
:1037E000761CF3E759F8047B761C30786C280FD0F0
:1037F00006DC4C2817D068280DD06A2814D104E0C4
:10380000742810D07A280FD10DE044F400140AE097
:1038100044F4801401E044F440147278824202D1EE
:1038200004F58014761C761C307866280BD013DCE7
:10383000582877D009DC002875D04528F6D04628CE
:10384000F4D047281AD19DE118E0632835D06428C8
:1038500079D0652812D195E1702873D008DC6728EB
:10386000F1D069286FD06E280DD06F2806D1B5E051
:1038700073282CD0752875D0782874D05A4617999B
:1038800090476D1C75E1C4F30250022809D003284B
:103890000DD0D9F8001004280DD00D6009F10409ED
:1038A00067E1D9F80010EA17C1E90052F6E7D9F844
:1038B00000100D80F2E70D70F0E719F8041B8DF889
:1038C000001000208DF80100EA46012003E059F8BD
:1038D00004AB4FF0FF3061074FF0000102D40DE060
:1038E00008F101018846B9420FDA8045F8DB1AF881
:1038F00008100029F4D108E008F10101884681424E
:10390000FADB1AF808100029F6D105985B46A0EBFF
:10391000080721463846179A00F094FA284400EB2D
:10392000080507E04DE029E10DE01AF8010B5A46C1
:1039300017999047B8F10108F7D25B4621463846FF
:10394000179A13E142E00A220092C4F302524FF0A8
:10395000000A022A08D059F804CB032A4FEAEC7176
:103960000AD00DE029E02AE009F1070121F0070261
:10397000F2E802C1914609E00FFA8CFC4FEAEC71C3
:10398000042A03D14FFA8CFC4FEAEC71002907DAC4
:103990000A460021DCF1000C61EB02012D2202E05D
:1039A000220504D52B228DF80420012203E0E20732
:1039B00001D02022F7E7904659E00A2102E01022C8
:1039C0000DE010214FF0000A00910BE010224FF0A3
:1039D000000A44F004040827009203E008224FF094
:1039E000000A0092C4F30252022A05D059F804CB0F
:1039F0000021032A08D009E009F1070121F007029C
:103A0000F2E802C1914605E01FFA8CFC042A01D1BC
:103A10000CF0FF0C4FF00008220728D5702806D0C4
:103A2000009B83F0100353EA0A0305D00EE0402206
:103A30008DF80420012208E05CEA010206D0302261
:103A40008DF804208DF8050002229046009B83F03B
:103A5000080353EA0A030AD15CEA010201D16207B2
:103A600005D530228DF804204FF001087F1E58281C
:103A700004D034A003900EA802900DE036A0F9E720
:103A800053466046009AFCF797FD84460398825C93
:103A90000298401E029002705CEA0100F0D1029888
:103AA00006A9081A00F1200A600702D524F4803420
:103AB00000E00127574502DDA7EB0A0000E00020E7
:103AC00000EB0A01009005984144401A0590E0037C
:103AD00006D45B462146179A059800F0B3F90544D1
:103AE000002706E001A85A46C05D179990476D1C53
:103AF0007F1C4745F6DBE0030CD55B462146179A51
:103B0000059800F09FF9054404E030205A461799C3
:103B100090476D1C0099481E00900029F5DC08E0D4
:103B2000029802995A460078491C029117999047C9
:103B30006D1CBAF10001AAF1010AF1DC65E1000097
:103B40000928010030313233343536373839616273
:103B50006364656600000000303132333435363737
:103B600038394142434445460000000000F058F90E
:103B70000544761C307800287FF4ECAD19B0284657
:103B8000BDE8F08F620700D4062709F1070222F092
:103B9000070CFCE80223E14603F000485FEA080C4A
:103BA00002D00FF2702C0DE05FEA045C02D50FF238
:103BB000682C07E05FEAC47C02D00FF2602C01E0C1
:103BC000AFF2700C4FF0FF3823F00043CDF850C037
:103BD00065280CD006DC452809D046281DD047288A
:103BE0003DD13DE0662818D067287ED138E000211D
:103BF000112F01DB112000E0781CCDE9000106A99E
:103C00000EA8FFF7EDFCDDE90F010E9A03910021EC
:103C1000009207F1010A04914DE04FF00040009737
:103C2000CDE9011006A90EA8FFF7DAFCDDE90F02C5
:103C300003920E9B11990022DDF80CA000930492D0
:103C400011B9791C00EB010AB7EB0A0004D4C0F1EA
:103C5000FF3007F1010A0490AAEB0700019044E04D
:103C6000012F00DA01270021112F01DD112000E0D2
:103C70003846CDE9000106A90EA8FFF7B1FCDDE941
:103C80000F010E9A0391002104910092BA46210778
:103C90000CD40399514500DA8A46BAF1010F05DDCB
:103CA000009AAAF10101515C302908D0B84202DA29
:103CB00010F1040F06DA0121CDE9011015E0AAF197
:103CC0000101E9E7002805DC049901440491AAEB0D
:103CD000000102E0411C514500DD8A460499401A6A
:103CE000401C01904FF000400290200704D401983E
:103CF000504501DBCDF8048000208DF84F0002987C
:103D00000DF14F07B0F1004F25D02B200E900298F7
:103D10004FF0020800280CDA404202902D200E904D
:103D200007E00A210298FCF731FC3031029007F8D5
:103D3000011DB8F10001A8F10108F2DC0298002889
:103D4000EFD1791E0E980870307800F0200040F016
:103D5000450007F8020D12A8C01B00F107081498CF
:103D6000007800B1012000EB0A01019801EBE0713D
:103D700005984144401A401E0590E00306D45B4676
:103D80002146179A059800F05DF8054414980078CC
:103D900018B15A46179990476D1CE00324D55B462D
:103DA0002146179A059800F04DF805441CE0049848
:103DB000002807DBDDE90301884203DD0098405C51
:103DC000179901E0179930205A469047049805F159
:103DD0000105401C04900198401E019004D12E2042
:103DE0005A46179990476D1CBAF10001AAF1010AD1
:103DF000DDDC05E017F8010B5A46179990476D1C5A
:103E0000B8F10001A8F10108F4DC5B462146179ADD
:103E10000598ABE62D0000002B00000020000000FC
:103E20002DE9F041044600251E461746880404D4B7
:103E300005E039462020B0476D1C641EF9D52846A0
:103E4000BDE8F0812DE9F041044600251E4690466C
:103E5000C80301D5302700E02027880404D505E0F9
:103E600041463846B0476D1C641EF9D52846BDE86A
:103E7000F0810A68531C0B601070704710B506483B
:103E8000FDF714FF0A210448FDF772FE0248FDF712
:103E9000ABFD80B210BD0000800400203EB50E488E
:103EA0000C490124016000218160047301754FF405
:103EB00060220461C2614160FDF79AFD0648FDF78A
:103EC000A9FC07200094CDE9014069460248FDF7AE
:103ED0000DFD3EBD002401408004002047E000BFEE
:103EE00000BF00BF00BF00BF00BF00BF00BF00BFDA
:103EF00000BF00BF00BF00BF00BF00BF00BF00BFCA
:103F000000BF00BF00BF00BF00BF00BF00BF00BFB9
:103F100000BF00BF00BF00BF00BF00BF00BF00BFA9
:103F200000BF00BF00BF00BF00BF00BF00BF00BF99
:103F300000BF00BF00BF00BF00BF00BF00BF00BF89
:103F400000BF00BF00BF00BF00BF00BF00BF00BF79
:103F500000BF00BF00BF00BF00BF00BF00BF00BF69
:103F600000BF00BF00BF00BF00BF00BF00BF401EBA
:103F700080B2B4D27047000013B501231A466946D7
:103F80000248FEF739FE00981CBD000034010020F5
:103F900010B5FFF773FF80B2FCF78FFA4FF066326F
:103FA000094BFCF7A4F9FCF7D5FA0446FCF792FAA2
:103FB00080B2FCF77DFA2146FCF764F9BDE81040B9
:103FC0000249FCF762B9000066664A3F00007A4485
:103FD00090B0FEF75DF8FFF7E7F8FEF7C3FEFEF7D7
:103FE00015FFFEF72FFFFEF7BBFEFEF760FE40F267
:103FF0003F1207214FF48C70FCF728FD594D4FF408
:1040000080712846FCF712FD57480068C16841F0EE
:104010002001C160554C01261EE000221146524885
:10402000FDF74CFA002201212846FEF71EF8C820B1
:10403000FDF70CFFFCF712FD062832D2DFE800F096
:104040000306292B2D2F267049A000E058A0FFF76A
:1040500083FAC820FDF7FAFE20780028DDD001227F
:1040600011462846FEF701F8002202212846FDF7F6
:10407000FCFF3C2253496846FCF764F86846FCF7AD
:1040800097F881B26846FFF70FF800280BD04EA0D2
:104090000AE058A0DBE75CA0D9E75FA0D7E764A0FF
:1040A000D5E76AA0D3E76DA0FFF756FA3C21684632
:1040B000FCF761F870A373A274A16846FFF75CFA7D
:1040C0006846FCF775F881B26846FEF7EDFF08B167
:1040D00073A000E07DA0FFF73FFA002201212846EF
:1040E000FDF7C3FF002202212846FDF7BEFFFDF7C2
:1040F000C1FF6060FEF72AFF7B4D7C4F41F2707874
:1041000040F6B839002600BFFDF7B4FFA84219D821
:10411000FDF7B0FF6168411A414509D1FDF7AAFFDB
:104120006060FEF713FF724972A0FFF715FA0BE00B
:10413000FDF7A0FFB0FBF9F209FB120020B9FEF772
:10414000C3FD08B9FEF734F860780028DCD066704B
:1041500032233A8868496948FEF74EFDFCF74AFE6B
:10416000D2E70000000C0140780100200000002090
:1041700041757468656E7469636174696F6E2070EF
:1041800061737365642C20737563636573736675FF
:104190006C6C7920636F6E6E656374656420746FF8
:1041A0002074686520736572766572A3A10D0A009C
:1041B000D0ADD2E9B0E6B1BEB4EDCEF3A3A10D0A05
:1041C000000000003C430008537563636573736629
:1041D000756C6C79207375627363726962656420B3
:1041E000746F20746F706963202E2E2E2F64700DF3
:1041F0000A000000B7C7B7A8B5C4636C69656E74E0
:104200004944A3A10D0A0000B7FECEF1B2BBBFC95D
:10421000D3C3A3A10D0A0000D3C3BBA7C3FBBBF24A
:10422000C3DCC2EBB4EDCEF3A3A10D0A0000000085
:10423000B7C7B7A8C1B4BDD328B1C8C8E7746F6BFE
:10424000656EB7C7B7A829A3A10D0A00CEB4D6AA38
:10425000B4EDCEF3A3A10D0A00000000D6F7CCE226
:10426000202E2E2E2F647020B6A9D4C4B2BBB3C9A1
:10427000B9A60D0A00000000363432373136343129
:10428000360000003338303437350000746F706901
:10429000632F25732F25732F636D6470000000005A
:1042A0005375636365737366756C6C79207375629F
:1042B0007363726962656420746F20746F706963E0
:1042C000202E2E2E2F636D64700D0A00D6F7CCE2DF
:1042D000202E2E2E2F636D647020B6A9D4C4B2BBDD
:1042E000B3C9B9A60D0A0000CF8AFFFF3400002031
:1042F0006000002025730A005C02002034010020C9
:1043000070B5FCF735FD4720FCF704FD00240A4D8D
:10431000FCF790FC2855032C0CD00020FCF7CCFCBB
:10432000641CE4B2032CF3D3FCF744FD0520FDF735
:10433000ACF870BD0120F1E757000020746F706980
:10434000632F3530353035302F2B2F64700000004F
:10435000000000000000000000000000000000005D
:10436000000000000000000000000000000000004D
:10437000000000000000000000000000000000003D
:1043800001020304060708090000000001020304FB
:104390002274656D223A2532642C2268756D223AAA
:1043A0002532642C22696C6C223A25642C224D51F2
:1043B00033223A252E32662C2252454C4159223A5C
:1043C0002531642C226163747561746F72223A7BAB
:1043D000224C454430223A2531642C224C4544314C
:1043E000223A2531647D00000844000800000020C6
:1043F00060000000C035000868440008600000202C
:1044000050080000D0350008000000000000000047
:10441000000000000000000074656D3A0068756DD2
:104420003A004D51333A00696C6C3A0001000000CB
:1044300010000000000000000024F4000000000054
:10444000000000000000000000000000000000006C
:10445000000000000000000000000000000000005C
:08446000000000000000000054
:04000005080000ED02
:00000001FF
